:100000000C9462000C948A000C948A000C948A0070
:100010000C948A000C948A000C948A000C948A0038
:100020000C948A000C948A000C948A000C948A0028
:100030000C948A000C948A000C948A000C948A0018
:100040000C9428020C948A000C9498020C9472026E
:100050000C948A000C948A000C948A000C948A00F8
:100060000C948A000C948A000000000023002600F3
:10007000290000000008000201000003040700003E
:1000800000000000000000000000250028002B00F8
:1000900000000000240027002A00040404040404D3
:1000A0000404020202020202030303030303010227
:1000B00004081020408001020408102001020408F6
:1000C00010208A0311241FBECFEFD8E0DEBFCDBFC2
:1000D00011E0A0E0B1E0EEE7F7E002C005900D927C
:1000E000A632B107D9F721E0A6E2B1E001C01D9226
:1000F000AC3CB207E1F710E0C2E6D0E004C02197C3
:10010000FE010E94B703C136D107C9F70E94CA0297
:100110000C94BD030C940000CF93DF9390E0FC019E
:10012000E255FF4F249186569F4FFC01849188230E
:10013000C1F090E0880F991FFC01E057FF4FC59177
:10014000D491FC01EA57FF4FA591B4919FB7F89461
:100150003881822F809583238883EC91E22BEC9366
:100160009FBFDF91CF910895AF92BF92CF92DF9260
:10017000EF92FF920F931F93CF93DF936C017B015C
:100180008B01040F151FEB015E01AE18BF08C017ED
:10019000D10759F06991D601ED91FC910190F08160
:1001A000E02DC6010995892B79F7C501DF91CF9123
:1001B0001F910F91FF90EF90DF90CF90BF90AF9085
:1001C0000895FC01538D448D252F30E0842F90E05D
:1001D000821B930B541710F0CF9608950197089542
:1001E000FC01918D828D981761F0A28DAE0FBF2F0B
:1001F000B11D5D968C91928D9F5F9F73928F90E061
:1002000008958FEF9FEF0895FC01918D828D9817CF
:1002100031F0828DE80FF11D858D90E008958FEF0C
:100220009FEF0895FC01918D228D892F90E0805CD5
:100230009F4F821B91098F73992708958FE291E058
:100240000E94120121E0892B09F420E0822F0895F9
:1002500080E090E0892B29F00E941E0181110C940E
:1002600000000895FC01A48DA80FB92FB11DA35A59
:10027000BF4F2C91848D90E001968F739927848FC6
:10028000A689B7892C93A089B1898C9183708064E9
:100290008C93938D848D981306C00288F389E02D8A
:1002A00080818F7D80830895EF92FF920F931F933B
:1002B000CF93DF93EC0181E0888F9B8D8C8D981319
:1002C0001AC0E889F989808185FF15C09FB7F89425
:1002D000EE89FF896083E889F98980818370806471
:1002E00080839FBF81E090E0DF91CF911F910F91BC
:1002F000FF90EF900895F62E0B8D10E00F5F1F4FCB
:100300000F731127E02E8C8D8E110CC00FB607FCD9
:10031000FACFE889F989808185FFF5CFCE010E9467
:100320003201F1CFEB8DEC0FFD2FF11DE35AFF4FA2
:10033000F0829FB7F8940B8FEA89FB8980818062F5
:10034000CFCFCF93DF93EC01888D8823B9F0AA89B2
:10035000BB89E889F9898C9185FD03C0808186FD80
:100360000DC00FB607FCF7CF8C9185FFF2CF8081CF
:1003700085FFEDCFCE010E943201E9CFDF91CF9111
:10038000089590E0FC01EE58FF4F2491FC01E255E6
:10039000FF4F3491FC01E656FF4FE491EE23C1F18B
:1003A000222339F02330E9F090F4213001F122309A
:1003B00011F1F0E0EE0FFF1FE859FF4FA591B49146
:1003C000EC91E32381E090E029F580E00895273067
:1003D000A9F02830C9F0243061F7809180008F7D2A
:1003E00003C0809180008F7780938000E2CF84B536
:1003F0008F7784BDDECF84B58F7DFBCF8091B00039
:100400008F778093B000D5CF8091B0008F7DF9CFEA
:1004100080E090E00895CF93DF93FC0101900020ED
:10042000E9F73197AF01481B590BBC018FE291E00E
:100430000E94B400EC0142E050E062E171E08FE222
:1004400091E00E94B4008C0F9D1FDF91CF91089521
:100450001F920F920FB60F9211242F933F938F93F9
:100460009F93AF93BF9380912B0190912C01A0910A
:100470002D01B0912E0130912A0123E0230F2D3759
:1004800058F50196A11DB11D20932A0180932B01DF
:1004900090932C01A0932D01B0932E018091260101
:1004A00090912701A0912801B09129010196A11DE9
:1004B000B11D8093260190932701A0932801B0934A
:1004C0002901BF91AF919F918F913F912F910F90F3
:1004D0000FBE0F901F90189526E8230F0296A11DBE
:1004E000B11DD2CF1F920F920FB60F9211242F93EE
:1004F0003F934F935F936F937F938F939F93AF93AC
:10050000BF93EF93FF938FE291E00E943201FF913E
:10051000EF91BF91AF919F918F917F916F915F917B
:100520004F913F912F910F900FBE0F901F901895F4
:100530001F920F920FB60F9211242F938F939F93B8
:10054000EF93FF93E0913F01F09140018081E091B2
:100550004501F091460182FD1BC0908180914801C8
:100560008F5F8F7320914901821741F0E09148011C
:10057000F0E0E15DFE4F958F80934801FF91EF9190
:100580009F918F912F910F900FBE0F901F901895F4
:100590008081F4CF789484B5826084BD84B5816015
:1005A00084BD85B5826085BD85B5816085BD80913E
:1005B0006E00816080936E001092810080918100B6
:1005C00082608093810080918100816080938100AE
:1005D000809180008160809380008091B100846070
:1005E0008093B1008091B00081608093B0008091D1
:1005F0007A00846080937A0080917A008260809390
:100600007A0080917A00816080937A0080917A00EC
:10061000806880937A001092C10088E00E948C006C
:1006200089E00E948C008AE00E948C008BE00E948E
:100630008C00E0913F01F091400182E08083E091E5
:100640003B01F0913C011082E0913D01F0913E01AF
:100650008FEC808310924701E0914301F0914401B7
:1006600086E08083E0914101F091420180818061C8
:100670008083E0914101F091420180818860808314
:10068000E0914101F0914201808180688083E09196
:100690004101F091420180818F7D8083C0E0D0E0F4
:1006A00088E00E94C1015C0189E00E94C1016C01E7
:1006B0008AE00E94C1017C018BE00E94C1018C0193
:1006C000AB2821F485E191E00E940B02CD2821F4B2
:1006D00089E191E00E940B02EF2821F48DE191E085
:1006E0000E940B02012B21F481E291E00E940B0297
:1006F0002FEF81EE94E0215080409040E1F700C060
:100700000000209769F20E941E01882349F20E948E
:100710000000C6CFEFE2F1E01382128288EE93E090
:10072000A0E0B0E084839583A683B78384E091E062
:100730009183808385EC90E09587848784EC90E0BA
:100740009787868780EC90E0918B808B81EC90E09E
:10075000938B828B82EC90E0958B848B86EC90E07F
:10076000978B868B118E128E138E148E0895EE0F3A
:0E077000FF1F0590F491E02D0994F894FFCF3F
:10077E00000000005401B400E100A1011201F000DC
:10078E0004010D0A00627431006274320062743327
:06079E000062743400004B
:00000001FF
